{
  "_format": "hh-sol-artifact-1",
  "contractName": "SnakeGame",
  "sourceName": "contracts/SnakeGame.sol",
  "abi": [
    {
      "inputs": [],
      "stateMutability": "nonpayable",
      "type": "constructor"
    },
    {
      "inputs": [
        {
          "internalType": "address",
          "name": "owner",
          "type": "address"
        }
      ],
      "name": "OwnableInvalidOwner",
      "type": "error"
    },
    {
      "inputs": [
        {
          "internalType": "address",
          "name": "account",
          "type": "address"
        }
      ],
      "name": "OwnableUnauthorizedAccount",
      "type": "error"
    },
    {
      "inputs": [],
      "name": "ReentrancyGuardReentrantCall",
      "type": "error"
    },
    {
      "anonymous": false,
      "inputs": [
        {
          "indexed": true,
          "internalType": "uint256",
          "name": "battleId",
          "type": "uint256"
        },
        {
          "indexed": false,
          "internalType": "address",
          "name": "winner",
          "type": "address"
        },
        {
          "indexed": false,
          "internalType": "uint256",
          "name": "prize",
          "type": "uint256"
        }
      ],
      "name": "BattleCompleted",
      "type": "event"
    },
    {
      "anonymous": false,
      "inputs": [
        {
          "indexed": true,
          "internalType": "uint256",
          "name": "battleId",
          "type": "uint256"
        },
        {
          "indexed": false,
          "internalType": "address",
          "name": "challenger",
          "type": "address"
        },
        {
          "indexed": false,
          "internalType": "address",
          "name": "opponent",
          "type": "address"
        },
        {
          "indexed": false,
          "internalType": "uint256",
          "name": "stake",
          "type": "uint256"
        }
      ],
      "name": "BattleCreated",
      "type": "event"
    },
    {
      "anonymous": false,
      "inputs": [
        {
          "indexed": true,
          "internalType": "address",
          "name": "previousOwner",
          "type": "address"
        },
        {
          "indexed": true,
          "internalType": "address",
          "name": "newOwner",
          "type": "address"
        }
      ],
      "name": "OwnershipTransferred",
      "type": "event"
    },
    {
      "anonymous": false,
      "inputs": [
        {
          "indexed": true,
          "internalType": "address",
          "name": "player",
          "type": "address"
        },
        {
          "indexed": false,
          "internalType": "uint256",
          "name": "points",
          "type": "uint256"
        },
        {
          "indexed": false,
          "internalType": "string",
          "name": "reason",
          "type": "string"
        }
      ],
      "name": "PointsAwarded",
      "type": "event"
    },
    {
      "anonymous": false,
      "inputs": [
        {
          "indexed": true,
          "internalType": "address",
          "name": "player",
          "type": "address"
        },
        {
          "indexed": false,
          "internalType": "uint256",
          "name": "score",
          "type": "uint256"
        },
        {
          "indexed": false,
          "internalType": "uint256",
          "name": "points",
          "type": "uint256"
        }
      ],
      "name": "ScoreSubmitted",
      "type": "event"
    },
    {
      "inputs": [
        {
          "internalType": "uint256",
          "name": "battleId",
          "type": "uint256"
        }
      ],
      "name": "acceptBattle",
      "outputs": [],
      "stateMutability": "nonpayable",
      "type": "function"
    },
    {
      "inputs": [
        {
          "internalType": "address",
          "name": "player",
          "type": "address"
        },
        {
          "internalType": "uint256",
          "name": "points",
          "type": "uint256"
        },
        {
          "internalType": "string",
          "name": "reason",
          "type": "string"
        }
      ],
      "name": "awardPoints",
      "outputs": [],
      "stateMutability": "nonpayable",
      "type": "function"
    },
    {
      "inputs": [],
      "name": "battleCount",
      "outputs": [
        {
          "internalType": "uint256",
          "name": "",
          "type": "uint256"
        }
      ],
      "stateMutability": "view",
      "type": "function"
    },
    {
      "inputs": [
        {
          "internalType": "uint256",
          "name": "",
          "type": "uint256"
        }
      ],
      "name": "battles",
      "outputs": [
        {
          "internalType": "address",
          "name": "challenger",
          "type": "address"
        },
        {
          "internalType": "address",
          "name": "opponent",
          "type": "address"
        },
        {
          "internalType": "uint256",
          "name": "stake",
          "type": "uint256"
        },
        {
          "internalType": "uint256",
          "name": "challengerScore",
          "type": "uint256"
        },
        {
          "internalType": "uint256",
          "name": "opponentScore",
          "type": "uint256"
        },
        {
          "internalType": "uint8",
          "name": "status",
          "type": "uint8"
        },
        {
          "internalType": "string",
          "name": "mode",
          "type": "string"
        },
        {
          "internalType": "uint256",
          "name": "createdAt",
          "type": "uint256"
        }
      ],
      "stateMutability": "view",
      "type": "function"
    },
    {
      "inputs": [
        {
          "internalType": "uint256",
          "name": "battleId",
          "type": "uint256"
        }
      ],
      "name": "cancelBattle",
      "outputs": [],
      "stateMutability": "nonpayable",
      "type": "function"
    },
    {
      "inputs": [
        {
          "internalType": "address",
          "name": "opponent",
          "type": "address"
        },
        {
          "internalType": "uint256",
          "name": "stake",
          "type": "uint256"
        },
        {
          "internalType": "string",
          "name": "mode",
          "type": "string"
        }
      ],
      "name": "createBattle",
      "outputs": [
        {
          "internalType": "uint256",
          "name": "",
          "type": "uint256"
        }
      ],
      "stateMutability": "nonpayable",
      "type": "function"
    },
    {
      "inputs": [
        {
          "internalType": "uint256",
          "name": "battleId",
          "type": "uint256"
        }
      ],
      "name": "getBattle",
      "outputs": [
        {
          "components": [
            {
              "internalType": "address",
              "name": "challenger",
              "type": "address"
            },
            {
              "internalType": "address",
              "name": "opponent",
              "type": "address"
            },
            {
              "internalType": "uint256",
              "name": "stake",
              "type": "uint256"
            },
            {
              "internalType": "uint256",
              "name": "challengerScore",
              "type": "uint256"
            },
            {
              "internalType": "uint256",
              "name": "opponentScore",
              "type": "uint256"
            },
            {
              "internalType": "uint8",
              "name": "status",
              "type": "uint8"
            },
            {
              "internalType": "string",
              "name": "mode",
              "type": "string"
            },
            {
              "internalType": "uint256",
              "name": "createdAt",
              "type": "uint256"
            }
          ],
          "internalType": "struct SnakeGame.Battle",
          "name": "",
          "type": "tuple"
        }
      ],
      "stateMutability": "view",
      "type": "function"
    },
    {
      "inputs": [
        {
          "internalType": "uint256",
          "name": "limit",
          "type": "uint256"
        }
      ],
      "name": "getLeaderboard",
      "outputs": [
        {
          "internalType": "address[]",
          "name": "addrs",
          "type": "address[]"
        },
        {
          "internalType": "uint256[]",
          "name": "scores",
          "type": "uint256[]"
        }
      ],
      "stateMutability": "view",
      "type": "function"
    },
    {
      "inputs": [
        {
          "internalType": "address",
          "name": "player",
          "type": "address"
        }
      ],
      "name": "getPlayer",
      "outputs": [
        {
          "components": [
            {
              "internalType": "uint256",
              "name": "highScore",
              "type": "uint256"
            },
            {
              "internalType": "uint256",
              "name": "totalPoints",
              "type": "uint256"
            },
            {
              "internalType": "uint256",
              "name": "gamesPlayed",
              "type": "uint256"
            },
            {
              "internalType": "uint256",
              "name": "lastPlayed",
              "type": "uint256"
            },
            {
              "internalType": "uint256",
              "name": "streak",
              "type": "uint256"
            },
            {
              "internalType": "bool",
              "name": "exists",
              "type": "bool"
            }
          ],
          "internalType": "struct SnakeGame.PlayerStats",
          "name": "",
          "type": "tuple"
        }
      ],
      "stateMutability": "view",
      "type": "function"
    },
    {
      "inputs": [],
      "name": "owner",
      "outputs": [
        {
          "internalType": "address",
          "name": "",
          "type": "address"
        }
      ],
      "stateMutability": "view",
      "type": "function"
    },
    {
      "inputs": [
        {
          "internalType": "uint256",
          "name": "",
          "type": "uint256"
        }
      ],
      "name": "playerList",
      "outputs": [
        {
          "internalType": "address",
          "name": "",
          "type": "address"
        }
      ],
      "stateMutability": "view",
      "type": "function"
    },
    {
      "inputs": [
        {
          "internalType": "address",
          "name": "",
          "type": "address"
        }
      ],
      "name": "players",
      "outputs": [
        {
          "internalType": "uint256",
          "name": "highScore",
          "type": "uint256"
        },
        {
          "internalType": "uint256",
          "name": "totalPoints",
          "type": "uint256"
        },
        {
          "internalType": "uint256",
          "name": "gamesPlayed",
          "type": "uint256"
        },
        {
          "internalType": "uint256",
          "name": "lastPlayed",
          "type": "uint256"
        },
        {
          "internalType": "uint256",
          "name": "streak",
          "type": "uint256"
        },
        {
          "internalType": "bool",
          "name": "exists",
          "type": "bool"
        }
      ],
      "stateMutability": "view",
      "type": "function"
    },
    {
      "inputs": [],
      "name": "registerPlayer",
      "outputs": [],
      "stateMutability": "nonpayable",
      "type": "function"
    },
    {
      "inputs": [],
      "name": "renounceOwnership",
      "outputs": [],
      "stateMutability": "nonpayable",
      "type": "function"
    },
    {
      "inputs": [
        {
          "internalType": "uint256",
          "name": "battleId",
          "type": "uint256"
        },
        {
          "internalType": "uint256",
          "name": "score",
          "type": "uint256"
        }
      ],
      "name": "submitBattleScore",
      "outputs": [],
      "stateMutability": "nonpayable",
      "type": "function"
    },
    {
      "inputs": [
        {
          "internalType": "uint256",
          "name": "score",
          "type": "uint256"
        }
      ],
      "name": "submitScore",
      "outputs": [],
      "stateMutability": "nonpayable",
      "type": "function"
    },
    {
      "inputs": [],
      "name": "totalPlayers",
      "outputs": [
        {
          "internalType": "uint256",
          "name": "",
          "type": "uint256"
        }
      ],
      "stateMutability": "view",
      "type": "function"
    },
    {
      "inputs": [
        {
          "internalType": "address",
          "name": "newOwner",
          "type": "address"
        }
      ],
      "name": "transferOwnership",
      "outputs": [],
      "stateMutability": "nonpayable",
      "type": "function"
    }
  ],
  "bytecode": "0x60806040523480156200001157600080fd5b5033600073ffffffffffffffffffffffffffffffffffffffff168173ffffffffffffffffffffffffffffffffffffffff1603620000885760006040517f1e4fbdf70000000000000000000000000000000000000000000000000000000081526004016200007f919062000207565b60405180910390fd5b6200009981620000c960201b60201c565b506001620000bc620000b06200018d60201b60201c565b620001b860201b60201c565b6000018190555062000224565b60008060009054906101000a900473ffffffffffffffffffffffffffffffffffffffff169050816000806101000a81548173ffffffffffffffffffffffffffffffffffffffff021916908373ffffffffffffffffffffffffffffffffffffffff1602179055508173ffffffffffffffffffffffffffffffffffffffff168173ffffffffffffffffffffffffffffffffffffffff167f8be0079c531659141344cd1fd0a4f28419497f9722a3daafe3b4186f6b6457e060405160405180910390a35050565b60007f9b779b17422d0df92223018b32b4d1fa46e071723d6817e2486d003becc55f0060001b905090565b6000819050919050565b600073ffffffffffffffffffffffffffffffffffffffff82169050919050565b6000620001ef82620001c2565b9050919050565b6200020181620001e2565b82525050565b60006020820190506200021e6000830184620001f6565b92915050565b61352280620002346000396000f3fe608060405234801561001057600080fd5b50600436106101165760003560e01c806381ec30f2116100a2578063aff0b29711610071578063aff0b297146102e5578063e00b636314610301578063e2eb41ff1461031f578063f2fde38b14610354578063f60cdcf61461037057610116565b806381ec30f21461024a5780638da5cb5b14610266578063a34b46fe14610284578063ae6d9073146102b557610116565b80635c12cd4b116100e95780635c12cd4b14610179578063606d2e96146101a95780636dd0ce7a146101e0578063704b59a714610210578063715018a61461024057610116565b8063290ab9ab1461011b578063465625bc146101375780634c4c447e146101535780635c07a4b01461016f575b600080fd5b610135600480360381019061013091906121ed565b61038e565b005b610151600480360381019061014c9190612261565b610571565b005b61016d600480360381019061016891906122a1565b6107ab565b005b61017761092a565b005b610193600480360381019061018e91906122ce565b610aed565b6040516101a091906123a0565b60405180910390f35b6101c360048036038101906101be91906122a1565b610b93565b6040516101d7989796959493929190612485565b60405180910390f35b6101fa60048036038101906101f591906122a1565b610cb0565b6040516102079190612622565b60405180910390f35b61022a600480360381019061022591906121ed565b610e61565b6040516102379190612644565b60405180910390f35b610248611278565b005b610264600480360381019061025f91906122a1565b61128c565b005b61026e611494565b60405161027b919061265f565b60405180910390f35b61029e600480360381019061029991906122a1565b6114bd565b6040516102ac9291906127d8565b60405180910390f35b6102cf60048036038101906102ca91906122a1565b6118cd565b6040516102dc919061265f565b60405180910390f35b6102ff60048036038101906102fa91906122a1565b61190c565b005b610309611c7a565b6040516103169190612644565b60405180910390f35b610339600480360381019061033491906122ce565b611c80565b60405161034b9695949392919061281e565b60405180910390f35b61036e600480360381019061036991906122ce565b611cc9565b005b610378611d4f565b6040516103859190612644565b60405180910390f35b610396611d55565b600160008573ffffffffffffffffffffffffffffffffffffffff1673ffffffffffffffffffffffffffffffffffffffff16815260200190815260200160002060050160009054906101000a900460ff166104c05760018060008673ffffffffffffffffffffffffffffffffffffffff1673ffffffffffffffffffffffffffffffffffffffff16815260200190815260200160002060050160006101000a81548160ff0219169083151502179055506003849080600181540180825580915050600190039060005260206000200160009091909190916101000a81548173ffffffffffffffffffffffffffffffffffffffff021916908373ffffffffffffffffffffffffffffffffffffffff160217905550600560008154809291906104ba906128ae565b91905055505b82600160008673ffffffffffffffffffffffffffffffffffffffff1673ffffffffffffffffffffffffffffffffffffffff168152602001908152602001600020600101600082825461051291906128f6565b925050819055508373ffffffffffffffffffffffffffffffffffffffff167f4c3089477cda1ac100291a040b3ac97ff5f55b6d8b2acfb56a59b9419d95ce0484848460405161056393929190612966565b60405180910390a250505050565b600060026000848152602001908152602001600020905060018160050160009054906101000a900460ff1660ff16146105df576040517f08c379a00000000000000000000000000000000000000000000000000000000081526004016105d6906129e4565b60405180910390fd5b8060000160009054906101000a900473ffffffffffffffffffffffffffffffffffffffff1673ffffffffffffffffffffffffffffffffffffffff163373ffffffffffffffffffffffffffffffffffffffff16148061068c57508060010160009054906101000a900473ffffffffffffffffffffffffffffffffffffffff1673ffffffffffffffffffffffffffffffffffffffff163373ffffffffffffffffffffffffffffffffffffffff16145b6106cb576040517f08c379a00000000000000000000000000000000000000000000000000000000081526004016106c290612a50565b60405180910390fd5b612710821115610710576040517f08c379a000000000000000000000000000000000000000000000000000000000815260040161070790612abc565b60405180910390fd5b8060000160009054906101000a900473ffffffffffffffffffffffffffffffffffffffff1673ffffffffffffffffffffffffffffffffffffffff163373ffffffffffffffffffffffffffffffffffffffff16036107755781816003018190555061077f565b8181600401819055505b60008160030154118015610797575060008160040154115b156107a6576107a583611ddc565b5b505050565b60006002600083815260200190815260200160002090503373ffffffffffffffffffffffffffffffffffffffff168160000160009054906101000a900473ffffffffffffffffffffffffffffffffffffffff1673ffffffffffffffffffffffffffffffffffffffff1614610854576040517f08c379a000000000000000000000000000000000000000000000000000000000815260040161084b90612b28565b60405180910390fd5b60008160050160009054906101000a900460ff1660ff16146108ab576040517f08c379a00000000000000000000000000000000000000000000000000000000081526004016108a290612b94565b60405180910390fd5b60038160050160006101000a81548160ff021916908360ff1602179055508060020154600160003373ffffffffffffffffffffffffffffffffffffffff1673ffffffffffffffffffffffffffffffffffffffff168152602001908152602001600020600101600082825461091f91906128f6565b925050819055505050565b600160003373ffffffffffffffffffffffffffffffffffffffff1673ffffffffffffffffffffffffffffffffffffffff16815260200190815260200160002060050160009054906101000a900460ff16610aeb5760018060003373ffffffffffffffffffffffffffffffffffffffff1673ffffffffffffffffffffffffffffffffffffffff16815260200190815260200160002060050160006101000a81548160ff0219169083151502179055506032600160003373ffffffffffffffffffffffffffffffffffffffff1673ffffffffffffffffffffffffffffffffffffffff168152602001908152602001600020600101819055506003339080600181540180825580915050600190039060005260206000200160009091909190916101000a81548173ffffffffffffffffffffffffffffffffffffffff021916908373ffffffffffffffffffffffffffffffffffffffff16021790555060056000815480929190610a96906128ae565b91905055503373ffffffffffffffffffffffffffffffffffffffff167f4c3089477cda1ac100291a040b3ac97ff5f55b6d8b2acfb56a59b9419d95ce046032604051610ae29190612c45565b60405180910390a25b565b610af561203e565b600160008373ffffffffffffffffffffffffffffffffffffffff1673ffffffffffffffffffffffffffffffffffffffff1681526020019081526020016000206040518060c001604052908160008201548152602001600182015481526020016002820154815260200160038201548152602001600482015481526020016005820160009054906101000a900460ff1615151515815250509050919050565b60026020528060005260406000206000915090508060000160009054906101000a900473ffffffffffffffffffffffffffffffffffffffff16908060010160009054906101000a900473ffffffffffffffffffffffffffffffffffffffff16908060020154908060030154908060040154908060050160009054906101000a900460ff1690806006018054610c2790612ca2565b80601f0160208091040260200160405190810160405280929190818152602001828054610c5390612ca2565b8015610ca05780601f10610c7557610100808354040283529160200191610ca0565b820191906000526020600020905b815481529060010190602001808311610c8357829003601f168201915b5050505050908060070154905088565b610cb8612076565b60026000838152602001908152602001600020604051806101000160405290816000820160009054906101000a900473ffffffffffffffffffffffffffffffffffffffff1673ffffffffffffffffffffffffffffffffffffffff1673ffffffffffffffffffffffffffffffffffffffff1681526020016001820160009054906101000a900473ffffffffffffffffffffffffffffffffffffffff1673ffffffffffffffffffffffffffffffffffffffff1673ffffffffffffffffffffffffffffffffffffffff1681526020016002820154815260200160038201548152602001600482015481526020016005820160009054906101000a900460ff1660ff1660ff168152602001600682018054610dce90612ca2565b80601f0160208091040260200160405190810160405280929190818152602001828054610dfa90612ca2565b8015610e475780601f10610e1c57610100808354040283529160200191610e47565b820191906000526020600020905b815481529060010190602001808311610e2a57829003601f168201915b505050505081526020016007820154815250509050919050565b60003373ffffffffffffffffffffffffffffffffffffffff168573ffffffffffffffffffffffffffffffffffffffff1603610ed1576040517f08c379a0000000000000000000000000000000000000000000000000000000008152600401610ec890612d1f565b60405180910390fd5b600073ffffffffffffffffffffffffffffffffffffffff168573ffffffffffffffffffffffffffffffffffffffff1603610f40576040517f08c379a0000000000000000000000000000000000000000000000000000000008152600401610f3790612d8b565b60405180910390fd5b6064841015610f84576040517f08c379a0000000000000000000000000000000000000000000000000000000008152600401610f7b90612df7565b60405180910390fd5b83600160003373ffffffffffffffffffffffffffffffffffffffff1673ffffffffffffffffffffffffffffffffffffffff168152602001908152602001600020600101541015611009576040517f08c379a000000000000000000000000000000000000000000000000000000000815260040161100090612e63565b60405180910390fd5b83600160003373ffffffffffffffffffffffffffffffffffffffff1673ffffffffffffffffffffffffffffffffffffffff168152602001908152602001600020600101600082825461105b9190612e83565b92505081905550600060046000815480929190611077906128ae565b9190505590506040518061010001604052803373ffffffffffffffffffffffffffffffffffffffff1681526020018773ffffffffffffffffffffffffffffffffffffffff1681526020018681526020016000815260200160008152602001600060ff16815260200185858080601f016020809104026020016040519081016040528093929190818152602001838380828437600081840152601f19601f820116905080830192505050505050508152602001428152506002600083815260200190815260200160002060008201518160000160006101000a81548173ffffffffffffffffffffffffffffffffffffffff021916908373ffffffffffffffffffffffffffffffffffffffff16021790555060208201518160010160006101000a81548173ffffffffffffffffffffffffffffffffffffffff021916908373ffffffffffffffffffffffffffffffffffffffff16021790555060408201518160020155606082015181600301556080820151816004015560a08201518160050160006101000a81548160ff021916908360ff16021790555060c08201518160060190816112229190613088565b5060e08201518160070155905050807f1bbb712452e9b3bb870855ab756e8775b4a6c1911c57bce8f41e8b969e8218df3388886040516112649392919061315a565b60405180910390a280915050949350505050565b611280611d55565b61128a6000611f72565b565b60006002600083815260200190815260200160002090503373ffffffffffffffffffffffffffffffffffffffff168160010160009054906101000a900473ffffffffffffffffffffffffffffffffffffffff1673ffffffffffffffffffffffffffffffffffffffff1614611335576040517f08c379a000000000000000000000000000000000000000000000000000000000815260040161132c906131dd565b60405180910390fd5b60008160050160009054906101000a900460ff1660ff161461138c576040517f08c379a000000000000000000000000000000000000000000000000000000000815260040161138390613249565b60405180910390fd5b8060020154600160003373ffffffffffffffffffffffffffffffffffffffff1673ffffffffffffffffffffffffffffffffffffffff168152602001908152602001600020600101541015611415576040517f08c379a000000000000000000000000000000000000000000000000000000000815260040161140c90612e63565b60405180910390fd5b8060020154600160003373ffffffffffffffffffffffffffffffffffffffff1673ffffffffffffffffffffffffffffffffffffffff168152602001908152602001600020600101600082825461146b9190612e83565b9250508190555060018160050160006101000a81548160ff021916908360ff1602179055505050565b60008060009054906101000a900473ffffffffffffffffffffffffffffffffffffffff16905090565b606080600083600380549050106114d457836114db565b6003805490505b90508067ffffffffffffffff8111156114f7576114f6612eb7565b5b6040519080825280602002602001820160405280156115255781602001602082028036833780820191505090505b5092508067ffffffffffffffff81111561154257611541612eb7565b5b6040519080825280602002602001820160405280156115705781602001602082028036833780820191505090505b509150600060038054806020026020016040519081016040528092919081815260200182805480156115f757602002820191906000526020600020905b8160009054906101000a900473ffffffffffffffffffffffffffffffffffffffff1673ffffffffffffffffffffffffffffffffffffffff16815260200190600101908083116115ad575b5050505050905060005b828110156118c5576000819050600060018361161d91906128f6565b90505b835181101561170057600160008584815181106116405761163f613269565b5b602002602001015173ffffffffffffffffffffffffffffffffffffffff1673ffffffffffffffffffffffffffffffffffffffff168152602001908152602001600020600101546001600086848151811061169d5761169c613269565b5b602002602001015173ffffffffffffffffffffffffffffffffffffffff1673ffffffffffffffffffffffffffffffffffffffff1681526020019081526020016000206001015411156116ed578091505b80806116f8906128ae565b915050611620565b5082818151811061171457611713613269565b5b602002602001015183838151811061172f5761172e613269565b5b602002602001015184848151811061174a57611749613269565b5b6020026020010185848151811061176457611763613269565b5b602002602001018273ffffffffffffffffffffffffffffffffffffffff1673ffffffffffffffffffffffffffffffffffffffff168152508273ffffffffffffffffffffffffffffffffffffffff1673ffffffffffffffffffffffffffffffffffffffff1681525050508282815181106117e0576117df613269565b5b60200260200101518683815181106117fb576117fa613269565b5b602002602001019073ffffffffffffffffffffffffffffffffffffffff16908173ffffffffffffffffffffffffffffffffffffffff16815250506001600084848151811061184c5761184b613269565b5b602002602001015173ffffffffffffffffffffffffffffffffffffffff1673ffffffffffffffffffffffffffffffffffffffff168152602001908152602001600020600101548583815181106118a5576118a4613269565b5b6020026020010181815250505080806118bd906128ae565b915050611601565b505050915091565b600381815481106118dd57600080fd5b906000526020600020016000915054906101000a900473ffffffffffffffffffffffffffffffffffffffff1681565b6000811161194f576040517f08c379a0000000000000000000000000000000000000000000000000000000008152600401611946906132e4565b60405180910390fd5b612710811115611994576040517f08c379a000000000000000000000000000000000000000000000000000000000815260040161198b90612abc565b60405180910390fd5b6000600160003373ffffffffffffffffffffffffffffffffffffffff1673ffffffffffffffffffffffffffffffffffffffff16815260200190815260200160002090508060050160009054906101000a900460ff16611a865760018160050160006101000a81548160ff0219169083151502179055506003339080600181540180825580915050600190039060005260206000200160009091909190916101000a81548173ffffffffffffffffffffffffffffffffffffffff021916908373ffffffffffffffffffffffffffffffffffffffff16021790555060056000815480929190611a80906128ae565b91905055505b6000600a8084611a969190613333565b611aa09190613364565b905060328310611aba57606481611ab791906128f6565b90505b60648310611ad35761012c81611ad091906128f6565b90505b60c88310611aec576103e881611ae991906128f6565b90505b6101f48310611b065761138881611b0391906128f6565b90505b8160000154831115611b1c578282600001819055505b80826001016000828254611b3091906128f6565b92505081905550816002016000815480929190611b4c906128ae565b91905055504282600301819055506202a300826003015442611b6e9190612e83565b1015611bcc57816004016000815480929190611b89906128ae565b91905055506007826004015403611baa5760c881611ba791906128f6565b90505b601e826004015403611bc7576103e881611bc491906128f6565b90505b611bd7565b600182600401819055505b3373ffffffffffffffffffffffffffffffffffffffff167fb7f20d0949b6a8bc59d005af4a52f7ff5d0cfcde9056fa556adb0e4b24dcb6d28483604051611c1f9291906133a6565b60405180910390a23373ffffffffffffffffffffffffffffffffffffffff167f4c3089477cda1ac100291a040b3ac97ff5f55b6d8b2acfb56a59b9419d95ce0482604051611c6d919061341b565b60405180910390a2505050565b60045481565b60016020528060005260406000206000915090508060000154908060010154908060020154908060030154908060040154908060050160009054906101000a900460ff16905086565b611cd1611d55565b600073ffffffffffffffffffffffffffffffffffffffff168173ffffffffffffffffffffffffffffffffffffffff1603611d435760006040517f1e4fbdf7000000000000000000000000000000000000000000000000000000008152600401611d3a919061265f565b60405180910390fd5b611d4c81611f72565b50565b60055481565b611d5d612036565b73ffffffffffffffffffffffffffffffffffffffff16611d7b611494565b73ffffffffffffffffffffffffffffffffffffffff1614611dda57611d9e612036565b6040517f118cdaa7000000000000000000000000000000000000000000000000000000008152600401611dd1919061265f565b60405180910390fd5b565b600060026000838152602001908152602001600020905060028160050160006101000a81548160ff021916908360ff160217905550600060028260020154611e249190613364565b905060008260040154836003015410611e63578260000160009054906101000a900473ffffffffffffffffffffffffffffffffffffffff169050611e8b565b8260010160009054906101000a900473ffffffffffffffffffffffffffffffffffffffff1690505b81600160008373ffffffffffffffffffffffffffffffffffffffff1673ffffffffffffffffffffffffffffffffffffffff1681526020019081526020016000206001016000828254611edd91906128f6565b92505081905550837f5f6e525271d68d47b9049b49a4ed50e63d6e24b56b74fc5d8d595818fcdfa0238284604051611f16929190613449565b60405180910390a28073ffffffffffffffffffffffffffffffffffffffff167f4c3089477cda1ac100291a040b3ac97ff5f55b6d8b2acfb56a59b9419d95ce0483604051611f6491906134be565b60405180910390a250505050565b60008060009054906101000a900473ffffffffffffffffffffffffffffffffffffffff169050816000806101000a81548173ffffffffffffffffffffffffffffffffffffffff021916908373ffffffffffffffffffffffffffffffffffffffff1602179055508173ffffffffffffffffffffffffffffffffffffffff168173ffffffffffffffffffffffffffffffffffffffff167f8be0079c531659141344cd1fd0a4f28419497f9722a3daafe3b4186f6b6457e060405160405180910390a35050565b600033905090565b6040518060c0016040528060008152602001600081526020016000815260200160008152602001600081526020016000151581525090565b604051806101000160405280600073ffffffffffffffffffffffffffffffffffffffff168152602001600073ffffffffffffffffffffffffffffffffffffffff168152602001600081526020016000815260200160008152602001600060ff16815260200160608152602001600081525090565b600080fd5b600080fd5b600073ffffffffffffffffffffffffffffffffffffffff82169050919050565b600061211f826120f4565b9050919050565b61212f81612114565b811461213a57600080fd5b50565b60008135905061214c81612126565b92915050565b6000819050919050565b61216581612152565b811461217057600080fd5b50565b6000813590506121828161215c565b92915050565b600080fd5b600080fd5b600080fd5b60008083601f8401126121ad576121ac612188565b5b8235905067ffffffffffffffff8111156121ca576121c961218d565b5b6020830191508360018202830111156121e6576121e5612192565b5b9250929050565b60008060008060608587031215612207576122066120ea565b5b60006122158782880161213d565b945050602061222687828801612173565b935050604085013567ffffffffffffffff811115612247576122466120ef565b5b61225387828801612197565b925092505092959194509250565b60008060408385031215612278576122776120ea565b5b600061228685828601612173565b925050602061229785828601612173565b9150509250929050565b6000602082840312156122b7576122b66120ea565b5b60006122c584828501612173565b91505092915050565b6000602082840312156122e4576122e36120ea565b5b60006122f28482850161213d565b91505092915050565b61230481612152565b82525050565b60008115159050919050565b61231f8161230a565b82525050565b60c08201600082015161233b60008501826122fb565b50602082015161234e60208501826122fb565b50604082015161236160408501826122fb565b50606082015161237460608501826122fb565b50608082015161238760808501826122fb565b5060a082015161239a60a0850182612316565b50505050565b600060c0820190506123b56000830184612325565b92915050565b6123c481612114565b82525050565b6123d381612152565b82525050565b600060ff82169050919050565b6123ef816123d9565b82525050565b600081519050919050565b600082825260208201905092915050565b60005b8381101561242f578082015181840152602081019050612414565b60008484015250505050565b6000601f19601f8301169050919050565b6000612457826123f5565b6124618185612400565b9350612471818560208601612411565b61247a8161243b565b840191505092915050565b60006101008201905061249b600083018b6123bb565b6124a8602083018a6123bb565b6124b560408301896123ca565b6124c260608301886123ca565b6124cf60808301876123ca565b6124dc60a08301866123e6565b81810360c08301526124ee818561244c565b90506124fd60e08301846123ca565b9998505050505050505050565b61251381612114565b82525050565b612522816123d9565b82525050565b600082825260208201905092915050565b6000612544826123f5565b61254e8185612528565b935061255e818560208601612411565b6125678161243b565b840191505092915050565b60006101008301600083015161258b600086018261250a565b50602083015161259e602086018261250a565b5060408301516125b160408601826122fb565b5060608301516125c460608601826122fb565b5060808301516125d760808601826122fb565b5060a08301516125ea60a0860182612519565b5060c083015184820360c08601526126028282612539565b91505060e083015161261760e08601826122fb565b508091505092915050565b6000602082019050818103600083015261263c8184612572565b905092915050565b600060208201905061265960008301846123ca565b92915050565b600060208201905061267460008301846123bb565b92915050565b600081519050919050565b600082825260208201905092915050565b6000819050602082019050919050565b60006126b2838361250a565b60208301905092915050565b6000602082019050919050565b60006126d68261267a565b6126e08185612685565b93506126eb83612696565b8060005b8381101561271c57815161270388826126a6565b975061270e836126be565b9250506001810190506126ef565b5085935050505092915050565b600081519050919050565b600082825260208201905092915050565b6000819050602082019050919050565b600061276183836122fb565b60208301905092915050565b6000602082019050919050565b600061278582612729565b61278f8185612734565b935061279a83612745565b8060005b838110156127cb5781516127b28882612755565b97506127bd8361276d565b92505060018101905061279e565b5085935050505092915050565b600060408201905081810360008301526127f281856126cb565b90508181036020830152612806818461277a565b90509392505050565b6128188161230a565b82525050565b600060c08201905061283360008301896123ca565b61284060208301886123ca565b61284d60408301876123ca565b61285a60608301866123ca565b61286760808301856123ca565b61287460a083018461280f565b979650505050505050565b7f4e487b7100000000000000000000000000000000000000000000000000000000600052601160045260246000fd5b60006128b982612152565b91507fffffffffffffffffffffffffffffffffffffffffffffffffffffffffffffffff82036128eb576128ea61287f565b5b600182019050919050565b600061290182612152565b915061290c83612152565b92508282019050808211156129245761292361287f565b5b92915050565b82818337600083830152505050565b60006129458385612400565b935061295283858461292a565b61295b8361243b565b840190509392505050565b600060408201905061297b60008301866123ca565b818103602083015261298e818486612939565b9050949350505050565b7f426174746c65206e6f7420616374697665000000000000000000000000000000600082015250565b60006129ce601183612400565b91506129d982612998565b602082019050919050565b600060208201905081810360008301526129fd816129c1565b9050919050565b7f4e6f7420696e20626174746c6500000000000000000000000000000000000000600082015250565b6000612a3a600d83612400565b9150612a4582612a04565b602082019050919050565b60006020820190508181036000830152612a6981612a2d565b9050919050565b7f53636f726520746f6f2068696768000000000000000000000000000000000000600082015250565b6000612aa6600e83612400565b9150612ab182612a70565b602082019050919050565b60006020820190508181036000830152612ad581612a99565b9050919050565b7f4e6f74206368616c6c656e676572000000000000000000000000000000000000600082015250565b6000612b12600e83612400565b9150612b1d82612adc565b602082019050919050565b60006020820190508181036000830152612b4181612b05565b9050919050565b7f43616e6e6f742063616e63656c00000000000000000000000000000000000000600082015250565b6000612b7e600d83612400565b9150612b8982612b48565b602082019050919050565b60006020820190508181036000830152612bad81612b71565b9050919050565b6000819050919050565b6000819050919050565b6000612be3612bde612bd984612bb4565b612bbe565b612152565b9050919050565b612bf381612bc8565b82525050565b7f57656c636f6d6520626f6e757300000000000000000000000000000000000000600082015250565b6000612c2f600d83612400565b9150612c3a82612bf9565b602082019050919050565b6000604082019050612c5a6000830184612bea565b8181036020830152612c6b81612c22565b905092915050565b7f4e487b7100000000000000000000000000000000000000000000000000000000600052602260045260246000fd5b60006002820490506001821680612cba57607f821691505b602082108103612ccd57612ccc612c73565b5b50919050565b7f43616e6e6f7420626174746c6520796f757273656c6600000000000000000000600082015250565b6000612d09601683612400565b9150612d1482612cd3565b602082019050919050565b60006020820190508181036000830152612d3881612cfc565b9050919050565b7f496e76616c6964206f70706f6e656e7400000000000000000000000000000000600082015250565b6000612d75601083612400565b9150612d8082612d3f565b602082019050919050565b60006020820190508181036000830152612da481612d68565b9050919050565b7f4d696e207374616b652031303020707473000000000000000000000000000000600082015250565b6000612de1601183612400565b9150612dec82612dab565b602082019050919050565b60006020820190508181036000830152612e1081612dd4565b9050919050565b7f496e73756666696369656e7420706f696e747300000000000000000000000000600082015250565b6000612e4d601383612400565b9150612e5882612e17565b602082019050919050565b60006020820190508181036000830152612e7c81612e40565b9050919050565b6000612e8e82612152565b9150612e9983612152565b9250828203905081811115612eb157612eb061287f565b5b92915050565b7f4e487b7100000000000000000000000000000000000000000000000000000000600052604160045260246000fd5b60008190508160005260206000209050919050565b60006020601f8301049050919050565b600082821b905092915050565b600060088302612f487fffffffffffffffffffffffffffffffffffffffffffffffffffffffffffffffff82612f0b565b612f528683612f0b565b95508019841693508086168417925050509392505050565b6000612f85612f80612f7b84612152565b612bbe565b612152565b9050919050565b6000819050919050565b612f9f83612f6a565b612fb3612fab82612f8c565b848454612f18565b825550505050565b600090565b612fc8612fbb565b612fd3818484612f96565b505050565b5b81811015612ff757612fec600082612fc0565b600181019050612fd9565b5050565b601f82111561303c5761300d81612ee6565b61301684612efb565b81016020851015613025578190505b61303961303185612efb565b830182612fd8565b50505b505050565b600082821c905092915050565b600061305f60001984600802613041565b1980831691505092915050565b6000613078838361304e565b9150826002028217905092915050565b613091826123f5565b67ffffffffffffffff8111156130aa576130a9612eb7565b5b6130b48254612ca2565b6130bf828285612ffb565b600060209050601f8311600181146130f257600084156130e0578287015190505b6130ea858261306c565b865550613152565b601f19841661310086612ee6565b60005b8281101561312857848901518255600182019150602085019450602081019050613103565b868310156131455784890151613141601f89168261304e565b8355505b6001600288020188555050505b505050505050565b600060608201905061316f60008301866123bb565b61317c60208301856123bb565b61318960408301846123ca565b949350505050565b7f4e6f7420796f757220626174746c650000000000000000000000000000000000600082015250565b60006131c7600f83612400565b91506131d282613191565b602082019050919050565b600060208201905081810360008301526131f6816131ba565b9050919050565b7f426174746c65206e6f742070656e64696e670000000000000000000000000000600082015250565b6000613233601283612400565b915061323e826131fd565b602082019050919050565b6000602082019050818103600083015261326281613226565b9050919050565b7f4e487b7100000000000000000000000000000000000000000000000000000000600052603260045260246000fd5b7f53636f7265206d75737420626520706f73697469766500000000000000000000600082015250565b60006132ce601683612400565b91506132d982613298565b602082019050919050565b600060208201905081810360008301526132fd816132c1565b9050919050565b7f4e487b7100000000000000000000000000000000000000000000000000000000600052601260045260246000fd5b600061333e82612152565b915061334983612152565b92508261335957613358613304565b5b828204905092915050565b600061336f82612152565b915061337a83612152565b925082820261338881612152565b9150828204841483151761339f5761339e61287f565b5b5092915050565b60006040820190506133bb60008301856123ca565b6133c860208301846123ca565b9392505050565b7f47616d652073636f726500000000000000000000000000000000000000000000600082015250565b6000613405600a83612400565b9150613410826133cf565b602082019050919050565b600060408201905061343060008301846123ca565b8181036020830152613441816133f8565b905092915050565b600060408201905061345e60008301856123bb565b61346b60208301846123ca565b9392505050565b7f426174746c6520766963746f7279000000000000000000000000000000000000600082015250565b60006134a8600e83612400565b91506134b382613472565b602082019050919050565b60006040820190506134d360008301846123ca565b81810360208301526134e48161349b565b90509291505056fea2646970667358221220667fc438cba6c475c722aa3de96ba422e5f1d6a95a7f781ea4fb3ac52ecc002c64736f6c63430008140033",
  "linkReferences": {},
  "deployedLinkReferences": {}
}